:020000040000FA
:10000000EBEF03F01200FFFFFFFFFFFFFFFFFFFF1B
:10001000FFFFFFFFFFFFFFFF0DEF0CF01200FFFFE0
:10002000FFFFFFFFFFFFFFFFFFFF0000040118516C
:10003000600BE842E842E842E842E842000901E099
:1000400058D004011951070A53E00B0A51E0070A7E
:1000500042E0010A2CE00B0A28E0020A26E0030A2B
:1000600022E0080A12E0010A0EE00F0A0AE0030A81
:1000700001E03ED00001010ECE6F0001040ED56FED
:1000800038D038D836D093D834D00001010ECE6F96
:100090000001D70ECF6F000ED06F0001D693000184
:1000A000010ED36F26D0ABD824D0F9D822D00001CE
:1000B000010ECE6F04011C510001CF6FD06BD80E22
:1000C0000001CF27000E0001D0230001D6930001CC
:1000D000010ED36F0ED00001010ECE6F04011C5132
:1000E000EA6AD80FE96E000EEA221AC4EFFF01D0C7
:1000F00000D01200800E0401185D58E104011B516C
:10010000030A34E0010A10E0030A01E04DD00001C7
:10011000010ECE6F0001DC0ECF6F160ED06F120EE7
:100120000001D36FD46B40D00001010ECE6F0401EB
:100130001A51F66EF76AD890F636F736720EF62632
:10014000170EF7220900F5CFCFF00A00F5CFD0F057
:10015000020E0001F76ACF25F66ED051F722090092
:10016000F5CFD3F00A00F5CFD4F01ED00001010E78
:10017000CE6F04011A51F66EF76AD890F636F7364C
:10018000760EF626170EF7220900F5CFCFF00A00FB
:10019000F5CFD0F0CFC0F6FFD0C0F7FF0800F55084
:1001A0000001D36FD46B00D00001D6831200000190
:1001B000010ECE6F0F0EE66E710EE66E0F0EE66E3E
:1001C000C6EC03F0E552E552E552010EE66ED80E9C
:1001D000E66E000EE66EC6EC03F0E552E552E5521F
:1001E0001AC4D7F004011A5104E10001050ED56FBD
:1001F00005D00001060ED56FD1EC0AF01200040103
:10020000286B0401296B040118511F0B020A14E02A
:10021000030A0EE0010A01E034D00001010ECE6FA6
:10022000040128810001D6A102D00401288329D02D
:100230000001010ECE6F25D00001010ECE6F04012A
:100240001C510F0B080DF350156A000F146E040EAD
:10025000152204011C51800B01E0010E040DF35026
:1002600000011424D16F000E1520D26FD1C0E9FF18
:10027000D2C0EAFFEF50040B03E00401010E286F27
:1002800000D00001CE050AE10001280ECF6F040E58
:10029000D06F0001D6930001020ED36F120004014B
:1002A0001A0511E1040118511F0B00090CE10001AE
:1002B000010ECE6F030E0401195D03E10001D6812A
:1002C00002D00001D69104011A513EE104011851F7
:1002D0001F0B020839E104011C510F0B000934E027
:1002E0000001010ECE6F04011C510F0B080DF350DD
:1002F000156A000F146E040E152204011C51800BA8
:1003000001E0010E040DF35000011424D16F000E22
:100310001520D26F030E0401195D07E1840ED1C0D0
:10032000E9FFD2C0EAFFEF6E0FD004011CAF06D088
:10033000D1C0E9FFD2C0EAFFEF6A06D0880ED1C073
:10034000E9FFD2C0EAFFEF6E12006C5002E0000E2F
:1003500001D0010E00090BE0040100513C0BE84202
:10036000E8420D0802E10CD801D01ED808D06C502C
:1003700002E0000E01D0010E040901E027D81200AE
:10038000D9CFE6FFE1CFD9FFE6520001CD6B0001E6
:10039000CE6B0001D36BD46B16EC00F0F0D8E552B5
:1003A000E552E7CFD9FF1200020E0001CD5D0CE14E
:1003B000A4D8040100BD04D00401C80E006F03D00E
:1003C0000401880E006F01D029D91200040E00012B
:1003D000D55D0CE11AC46EFF6E50000804E2000106
:1003E000050ED56F03D00001030ED56F0001CD05BA
:1003F0000CE10DD8040104BD04D00401C80E046F43
:1004000003D00401880E046F01D008D91200D9CF9F
:10041000E6FFE1CFD9FF020EE1260001100ED35D09
:10042000000ED45905E2D3C0DEFFD4C0DDFF03D0F7
:10043000100EDE6EDD6A0401049304010491010EC6
:10044000DB5004010413DFCF05F4000EDB50000184
:10045000D35F010EDB500001D45B0001280ED16F89
:10046000040ED26F0001D6A320D0D9CFE9FFDACF96
:10047000EAFFEE50ED1018E0CFC0F6FFD0C0F7FF56
:100480000800F550D1C0E9FFD2C0EAFFEF6E0001CD
:10049000D12B000ED2230001CF2B000ED023DF067C
:1004A000010E01E2DB06E1D71ED0D9CFE9FFDACF9A
:1004B000EAFFEE50ED1017E0CFC0E9FFD0C0EAFF31
:1004C000EF50D1C0E9FFD2C0EAFFEF6E0001D12B9F
:1004D000000ED2230001CF2B000ED023DF06010E29
:1004E00001E2DB06E2D7020EE15C02E2E16AE552DC
:1004F000E16EE552E7CFD9FF1200D9CFE6FFE1CF99
:10050000D9FF020EE126030E04010015E76E010E6D
:10051000E7CFDBFF01C4DFFFDE500001D327DD5052
:100520000001D4230001280ECF6F040ED06FD9CF65
:10053000E9FFDACFEAFFEE50ED1017E0CFC0E9FF98
:10054000D0C0EAFFEF50D1C0E9FFD2C0EAFFEF6EA2
:100550000001D12B000ED2230001CF2B000ED0239F
:10056000DF06010E01E2DB06E2D7020EE15C02E2E9
:10057000E16AE552E16EE552E7CFD9FF12000001D2
:10058000CE510FE10401100E016F0401180E026F2D
:10059000040E036F0401840E006F0401840E046FC7
:1005A0003BD0040118AF25D00001D35104011E5DDA
:1005B0000001D45104011F5904E21EC4D3F01FC42A
:1005C000D4F025DF0001010ECD6F0401100E016F84
:1005D0000401180E026F040E036F0401800E006FF9
:1005E0000401280E066F040E076F0401C80E046F85
:1005F00013D00001020ECD6F0401056B0401C80E7B
:10060000046F0401100E016F0401280E026F040E26
:10061000036F0401C80E006F6D9812000001CD6BCE
:100620000401100E016F0401180E026F040E036F17
:100630000401880E006F0401046B12006DA610D82F
:1006400002D06DB614D80001D50509E16DBA07D006
:10065000686A696A698069880001020ED56F1200B4
:100660006D6A696A6D860001010ED56F12006D6AB0
:10067000696A0001D56B1200FADF12000001D55142
:1006800001E13AD06850040B04E06950040B01E02A
:1006900038D86DB231D06850010B04E06950010BBD
:1006A00001E052D86850100B04E06950100B01E0D3
:1006B00024D86850400B04E06950400B01E039D861
:1006C0006850200B04E06950200B01E034D86850DA
:1006D000020B04E06950020B01E034D8030E000164
:1006E000D55D01E209D06850080B06E06950080B9F
:1006F00003E0A5EC01F068961200698468986D82A9
:1007000012006D926994689412000001D6A110D075
:10071000F8DF6D840001080ED96F070EDA6F000153
:10072000D907000EDA5B0001D951DA11F8E16D94B6
:100730001200689C120070A003D00EEC03F07090C1
:10074000689A1200689212006A6A686A9F0E6B6E5D
:100750007B0E696E6E6A0F0EE66E710EE66E0F0E00
:10076000E66E14D8E552E552E552160E706E68A694
:1007700002D06896FCD76D980EEC03F00001D6917C
:100780000001D76B0001030ED56F1200D9CFE6FF31
:10079000E1CFD9FFFD0EDBCFE9FFFE0EDBCFEAFF95
:1007A000FC0EDB5004E0EE6AFC0EDB06F9D7E552E6
:1007B000E7CFD9FF1200000EF36E00EE00F0080E36
:1007C00001D81200EA6002D0EE6AFCD7F350E9606B
:1007D0001200EE6AFCD713EE80F023EE80F0F86A88
:1007E000019CBEEC0BF0F9EC03F026EC0CF0FBD70F
:1007F00012001200FFFFFFFFFFFFFFFFFFFFFFFFE1
:10080000EBEF03F01200010EC26E0D0EC16E8C0EE6
:10081000C06EF30E806EE30E926E9368FC0E826ED5
:10082000F80E946E000E0001A96FAA6B0001A76F6D
:10083000A86B000E0001AF6FB06B0001AD6FAE6B27
:100840000001B16BB26B1200D9CFE6FFE1CFD9FF47
:10085000FE0EDB50A96EA69EA69CA680A85000D0D6
:10086000E552E7CFD9FF1200D9CFE6FFE1CFD9FF9C
:10087000FE0EDB50A96EFD0EDB50A86EA69EA69C58
:10088000A684550EA76EAA0EA76EA682A6B2FED7A4
:10089000A694E552E7CFD9FF1200D9CFE6FFE1CF0A
:1008A000D9FF020EE1268098400EDF6E010EDB6A52
:1008B000080EF36E010EDBCFF4FFF350F45C10E290
:1008C000DF50146E156A1450800B02E0808601D050
:1008D00080968084DF9EDF468094010EDB2AE8D775
:1008E000FE0EDB50DF6E010EDB6A080EF36E010EAA
:1008F000DBCFF4FFF350F45C10E2DF50146E156AA6
:100900001450800B02E0808601D080968084DF9EA8
:10091000DF468094010EDB2AE8D78088020EE15C76
:1009200002E2E16AE552E16EE552E7CFD9FF12003B
:10093000D9CFE6FFE1CFD9FF020EE1268294400E27
:10094000DF6E010EDB6A080EF36E010EDBCFF4FFE3
:10095000F350F45C10E2DF50146E156A1450800BF3
:1009600002E0828201D082928280DF9EDF46829006
:10097000010EDB2AE8D7FE0EDB50DF6E010EDB6ACC
:10098000080EF36E010EDBCFF4FFF350F45C10E2BF
:10099000DF50146E156A1450800B02E0828201D081
:1009A00082928280DF9EDF468290010EDB2AE8D7AA
:1009B0008284020EE15C02E2E16AE552E16EE552F8
:1009C000E7CFD9FF1200D9CFE6FFE1CFD9FFE1068B
:1009D000E106E750EA6EE106E750E96EDA50B76FDC
:1009E000D950BD6F600ED96E000EDA6E400EB66F34
:1009F000EE50DE6EB62FFCD7E12AE12AE12AB7518C
:100A0000DA6EBD51D96EE552E7CFD9FF1200D9CFCA
:100A1000E6FFE1CFD9FFFE0EDB5003E1050EC26E0B
:100A200002D0010EC26EC282C2B2FED7C3CFF3FFA4
:100A3000C4CFF4FF00D0E552E7CFD9FF1200050E76
:100A4000C26EC282C2B2FED71200010EC26EC28254
:100A5000C2B2FED71200D9CFE6FFE1CFD9FF080E10
:100A6000E126060E0001D55D03E36D50020B02E0A6
:100A7000C7EF0AF0100EE66E600EE66E000EE66E30
:100A800025EC0BF0E552E552E552DF6EDF5002E057
:100A900060C0B5F0800E0001B55D18E1010EDB68A5
:100AA000010EDBCFE6FF020EE66EDEDEE552E5521A
:100AB000010EDBCFE6FF040EE66ED6DEE552E55210
:100AC000400E0001B16FB26B0001B56B810E0001E9
:100AD000B55D1CE1010E61C0DBFF010EDBCFE6FF5F
:100AE000090EE66EC1DEE552E552010E62C0DBFF83
:100AF000010EDBCFE6FF0A0EE66EB6DEE552E552EA
:100B0000400E0001B16FB26B0001B56B830E0001A6
:100B1000B55D01E0FED1E66AC0DEE552E66A08DFB7
:100B2000E552040EDB6A050EDB6A060EDB6A070E71
:100B3000DB6A020EDB6A030EDB6A020EDBCF14F007
:100B4000030EDBCF15F0000E145C010E155825E2E4
:100B5000E66A5DDFE552F3CF14F0F4CF15F0166AC4
:100B6000176AD950040FE96EDACFEAFF1450EE2667
:100B70001550EE221650EE221750EE220001BC6BEB
:100B8000400E0001BC5D03E20001BC2BF9D7020E50
:100B9000DB2A030E01E3DB2AD0D7040EDBCF14F0EF
:100BA000050EDBCF15F0060EDBCF16F0070EDBCF00
:100BB00017F0080ED8901732163215321432E806A4
:100BC000F9E1010E14C0DBFF010EDBCFE6FF010EE1
:100BD000E66E4ADEE552E552040EDBCF14F0050E58
:100BE000DBCF15F0060EDBCF16F0070EDBCF17F0CC
:100BF000100ED8901732163215321432E806F9E189
:100C0000010E14C0DBFF010EDBCFE6FF020EE66E25
:100C10002BDEE552E552040EDB6A050EDB6A060E9A
:100C2000DB6A070EDB6A020EDB6A030EDB6A020E6A
:100C3000DBCF14F0030EDBCF15F0000E145C010EB9
:100C4000155826E2010EE66EE2DEE552F3CF14F00F
:100C5000F4CF15F0166A176AD950040FE96EDACF8F
:100C6000EAFF1450EE261550EE221650EE221750D1
:100C7000EE220001BC6B400E0001BC5D03E20001EE
:100C8000BC2BF9D7020EDB2A030E01E3DB2ACFD7F8
:100C9000040EDBCF14F0050EDBCF15F0060EDBCF14
:100CA00016F0070EDBCF17F0080ED8901732163269
:100CB00015321432E806F9E1010E14C0DBFF010E13
:100CC000DBCFE6FF030EE66ECFDDE552E552040E04
:100CD000DBCF14F0050EDBCF15F0060EDBCF16F0E0
:100CE000070EDBCF17F0100ED890173216321532E0
:100CF0001432E806F9E1010E14C0DBFF010EDBCF70
:100D0000E6FF040EE66EB0DDE552E552060EE66E35
:100D1000C4DDE552060EE66E0BDEE552040EDB6A1C
:100D2000050EDB6A060EDB6A070EDB6A020EDB6A63
:100D3000030EDB6A020EDBCF14F0030EDBCF15F0DF
:100D4000000E145C010E155825E2E66A60DEE552DD
:100D5000F3CF14F0F4CF15F0166A176AD950040FC8
:100D6000E96EDACFEAFF1450EE261550EE22165047
:100D7000EE221750EE220001BC6B400E0001BC5D5C
:100D800003E20001BC2BF9D7020EDB2A030E01E3BC
:100D9000DB2AD0D7040EDBCF14F0050EDBCF15F025
:100DA000060EDBCF16F0070EDBCF17F0080ED8903B
:100DB0001732163215321432E806F9E1010E14C06A
:100DC000DBFF010EDBCFE6FF050EE66E4DDDE552E3
:100DD000E552040EDBCF14F0050EDBCF15F0060E46
:100DE000DBCF16F0070EDBCF17F0100ED8901732BE
:100DF000163215321432E806F9E1010E14C0DBFF99
:100E0000010EDBCFE6FF060EE66E2EDDE552E55263
:100E1000040EDB6A050EDB6A060EDB6A070EDB6A70
:100E2000020EDB6A030EDB6A020EDBCF14F0030E48
:100E3000DBCF15F0000E145C010E155826E2010EF2
:100E4000E66EE5DDE552F3CF14F0F4CF15F0166A47
:100E5000176AD950040FE96EDACFEAFF1450EE2674
:100E60001550EE221650EE221750EE220001BC6BF8
:100E7000400E0001BC5D03E20001BC2BF9D7020E5D
:100E8000DB2A030E01E3DB2ACFD7040EDBCF14F0FD
:100E9000050EDBCF15F0060EDBCF16F0070EDBCF0D
:100EA00017F0080ED8901732163215321432E806B1
:100EB000F9E1010E14C0DBFF010EDBCFE6FF070EE8
:100EC000E66ED2DCE552E552040EDBCF14F0050EDF
:100ED000DBCF15F0060EDBCF16F0070EDBCF17F0D9
:100EE000100ED8901732163215321432E806F9E196
:100EF000010E14C0DBFF010EDBCFE6FF080EE66E2D
:100F0000B3DCE552E552400E0001B16FB26B000157
:100F1000B56B850E0001B55D01E0FAD168C0E6FF52
:100F2000BCDCE55269C0E6FF03DDE55261C0A3F019
:100F300062C0A4F063C0A0F064C0A1F065C0A2F0DC
:100F400066C0B8F067C0B9F00001B951146E156AF7
:100F50000001B851166E176A086A010E096E16C0B4
:100F60000DF017C00EF042EC0CF0145006240001F6
:100F7000A56F155007200001A66F010EEA6EE96A01
:100F8000EF6AE92EFDD7EA2AE96AEF6AE92EFDD772
:100F9000EA2A7F0EE96EAA0EEF6EE92EFCD7EF6EFD
:100FA000050EEA6EE96AEF6AE92EFDD7EA2AE96AD8
:100FB000EF6AE92EFDD7EA2A7F0EE96EAA0EEF6EE0
:100FC000E92EFCD7EF6EB82BE250C06FE150BF6F37
:100FD000DA50C26FD950C16F010EEA6E050EDA6E9B
:100FE000E96AD96A030EE26EE16A040EB36FB66B6A
:100FF000B76B0001A3AFC8D00001A451166E176AE9
:10100000030E0001A315186E196A086A010E096E15
:1010100018C00DF019C00EF042EC0CF0165006246A
:10102000146E17500720156E020E14C0DBFF030E5E
:1010300015C0DBFF960ED56E490ED76ED66AA00E90
:10104000F26E0001B46B0001A3AD4FD00001A3AB61
:1010500026D0F5DC020EDBCF14F0030EDBCF15F04B
:101060001450C35C1550C45807E3E9DC0F0E0001AF
:10107000B45D01E101D0EED7020EDBCF14F0030E18
:10108000DBCF15F01450C35C1550C45807E2D7DC11
:101090000F0E0001B45D01E101D0EED725D0CFDC09
:1010A000020EDBCF14F0030EDBCF15F01450C35C3F
:1010B0001550C45807E2C3DC0F0E0001B45D01E116
:1010C00001D0EED7020EDBCF14F0030EDBCF15F00C
:1010D0001450C35C1550C45807E3B1DC0F0E000177
:1010E000B45D01E101D0EED74ED00001A3AB26D014
:1010F000ACDC020EDBCF14F0030EDBCF15F0145086
:10110000C35C1550C45807E3A0DC0F0E0001B45DAA
:1011100001E101D0EED7020EDBCF14F0030EDBCFDE
:1011200015F01450C35C1550C45807E28EDC0F0E46
:101130000001B45D01E101D0EED725D086DC020EBE
:10114000DBCF14F0030EDBCF15F01450C35C155049
:10115000C45807E27ADC0F0E0001B45D01E101D052
:10116000EED7020EDBCF14F0030EDBCF15F01450D8
:10117000C35C1550C45807E368DC0F0E0001B45D72
:1011800001E101D0EED7F26A180E0001A31508089C
:1011900029E1010EC26EC28200000000C3CFEEFF43
:1011A000D890B637B635C410B66FB32F06D0B65147
:1011B000E66EB66B040EB36F04D0010EE82EFED7B8
:1011C0000000C282A0C0BEF0A1C0BDF0A2C0BCF0B1
:1011D000BC2FFED7BD2FFCD7BE2FFAD7B92FDED735
:1011E000B82FDCD7180E0001A31510082AE1070E4E
:1011F000E26E050EC26EC2820000C3CFDEFFD89041
:10120000B637B635C410B66FB32F06D0B651E66EFA
:10121000B66B040EB36F04D0010EE82EFED70000AB
:10122000C282A0C0BEF0A1C0BDF0A2C0BCF0BC2F65
:10123000FED7BD2FFCD7BE2FFAD7B92FDED7B82FD8
:10124000DCD7180E0001A315180843E1050EC26E85
:10125000C28200000000C3CFEEFFD890B637B6358B
:10126000C410B66FB32D04D0B651E76EB66B04D080
:10127000010EE82EFED70000010EC26EC2820000F1
:1012800000000000C3CFDEFFD890B737B735C410D9
:10129000B76FB32F0AD0040EE226B751E66E040EE4
:1012A000E25EB76B040EB36F04D0030EE82EFED7D8
:1012B0000000A0C0BEF0A1C0BDF0A2C0BCF0BC2F19
:1012C000FED7BD2FFCD7BE2FFAD7B92FBFD7B82F67
:1012D000BDD7C051E26EBF51E16EC251DA6EC1514D
:1012E000D96E0001B56BA5C0A7F0A6C0A8F000019B
:1012F000AB6B010EAC6F000E0001B16FB26B000161
:10130000AF6FB06B0001A96FAA6B0001AD6FAE6B40
:101310000001A83504E2A7510008000EA85533E2E9
:10132000ABC0E6FFACC0E6FFE3EC04F0E552E552EB
:10133000400E0001AB27000E0001AC23400E00015F
:10134000A75F000E0001A85B0001A83504E2A751C9
:101350000008000EA85508E3800E0001AD6FAE6BCB
:101360000001AB6B030EAC6F04010CBFFDD7400E48
:10137000E66E600EE66E000EE66EE9EC0AF0E552EF
:10138000E552E55204D10001AE3504E2AD5100084A
:10139000000EAE5533E2ABC0E6FFACC0E6FFE3ECB7
:1013A00004F0E552E552400E0001AB27000E0001AB
:1013B000AC23400E0001AD5F000E0001AE5B0001EA
:1013C000AE3504E2AD510008000EAE5508E3A5C0ED
:1013D000A9F0A6C0AAF00001AB6B050EAC6F04012A
:1013E0000CBFFDD7400EE66E600EE66E000EE66E98
:1013F000E9EC0AF0E552E552E552C9D00001AA3500
:1014000004E2A9510008000EAA5533E2ABC0E6FF82
:10141000ACC0E6FFE3EC04F0E552E552400E0001FB
:10142000AB27000E0001AC23400E0001A95F000EA7
:101430000001AA5B0001AA3504E2A9510008000ED0
:10144000AA5508E3800E0001AF6FB06B0001AB6BD3
:10145000070EAC6F04010CBFFDD7400EE66E600EA8
:10146000E66E000EE66EE9EC0AF0E552E552E55252
:101470008ED00001B03504E2AF510008000EB05527
:1014800027E2ABC0E6FFACC0E6FFE3EC04F0E552B8
:10149000E552400E0001AB27000E0001AC23400EC8
:1014A0000001AF5F000E0001B05B400E0001B16FA4
:1014B000B26B04010CBFFDD7400EE66E600EE66E07
:1014C000000EE66EE9EC0AF0E552E552E5525FD017
:1014D0000001B23504E2B1510008000EB25557E2E6
:1014E000010EE66E24EC04F0E5520001606F020E7E
:1014F000E66E24EC04F0E5520001616F030EE66E27
:1015000024EC04F0E5520001626F040EE66E24EC58
:1015100004F0E5520001636F050EE66E24EC04F062
:10152000E5520001646F060EE66E24EC04F0E5520D
:101530000001656F070EE66E24EC04F0E552000131
:10154000666F080EE66E24EC04F0E5520001676F4A
:10155000090EE66E24EC04F0E5520001686F0A0EF5
:10156000E66E24EC04F0E5520001696F04010CBF43
:10157000FDD7400EE66E600EE66E000EE66EE9ECFC
:101580000AF0E552E552E5520001B16BB26B080E6C
:10159000E15C02E2E16AE552E16EE552E7CFD9FF94
:1015A00012000001DB6B1E0E716E0401400E096F0C
:1015B0000401380E0A6F040E0B6F0401880E086FC9
:1015C0000401780E0E6F040E0F6F0401400E0C6FB5
:1015D0001200D9CFE6FFE1CFD9FFE652FC0EDB5077
:1015E000400805E2400EF36EFC0EF3CFDBFFDF6A2E
:1015F000FC0EDB50DF5C19E2DF50E76EFD0EDBCF47
:10160000E9FFFE0EDBCFEAFFE750E926000EEA22F3
:10161000EF50E66EDF50EA6A780FE96E040EEA22B8
:10162000E552E750EF6EDF2AE3D7FC0EDBCF0DF477
:10163000400E04010C1704010C7D880E04010C13EC
:10164000E552E552E7CFD9FF1200D9CFE6FFE1CF4F
:10165000D9FF0001DB6B040108BF39D0FC0EDBCFE2
:1016600014F004010951D880145403E2FC0E09C49B
:10167000DBFF0001DB6BFC0EDB500001DB5D1CE2DD
:101680000001DB51EA6A380FE96E040EEA22EF50DE
:10169000E66E0001DB51E76EFD0EDBCFE9FFFE0ECB
:1016A000DBCFEAFFE750E926000EEA22E552E750D9
:1016B000EF6E0001DB2BDFD70401400E096F400EF7
:1016C000040108170401087D880E040108130001B5
:1016D000DB5100D0E552E7CFD9FF12001201000222
:1016E00000000010D8040C000000010200010902F3
:1016F0002000010100803209040000020000000007
:10170000070501034000080705810340004004036A
:10171000090434034D006900630072006F00630028
:1017200068006900700020005400650063006800D4
:101730006E006F006C006F006700790020004900A8
:101740006E0063002E002C034300610072007400E1
:101750006500200041005100550049005300500031
:10176000490043002D0055005300420032002E0076
:101770003000EE16EE160E17121746172A0EF66EEA
:10178000000EF76E000EF86E00010900F550C86FEC
:101790000900F550C96F03E1C86701D03DD00900C9
:1017A000F550C36F0900F550C46F0900F550C56FBF
:1017B00009000900F550E96E0900F550EA6E0900CC
:1017C00009000900F550C66F0900F550C76F090000
:1017D0000900F6CFCAF0F7CFCBF0F8CFCCF0C3C0FA
:1017E000F6FFC4C0F7FFC5C0F8FF0001C65302E111
:1017F000C75307E00900F550EE6EC607F8E2C707C9
:10180000F9D7CAC0F6FFCBC0F7FFCCC0F8FF000184
:10181000C807000EC95BBFD71200D8CFE4FFE0CFE6
:10182000E4FFE46EDACFE4FFE2CFDAFFE652F294AF
:10183000490ED76ED66A0001B42BE552E5CFDAFF28
:10184000E550E5CFE0FFE5CFD8FF100007D8000155
:10185000B56B11D82BEC05F0FCD712000F0EC1129E
:1018600003EC04F0140E6F6E0001D56B0001D66B13
:101870000001D76B12001EEC03F06FBE02D03EECED
:1018800003F0120009C013F008C012F008500D0256
:10189000F4CF07F0F3CF06F009500E02F4CF09F0B1
:1018A000F3CF08F00D02F3500726F4500822E86A3F
:1018B000092212500E02F3500726F4500822E86A5B
:1018C00009220EAE68EF0CF01250085E1350095A50
:1018D00013AE000C0D50085E0E50095A000CFFFFAD
:1018E000FFFFFFFFFFFFFFFFFFFFFFFFFFFFFFFF08
:1018F000FFFFFFFFFFFFFFFFFFFFFFFFFFFFFFFFF8
:10190000FFFFFFFFFFFFFFFFFFFFFFFFFFFFFFFFE7
:10191000FFFFFFFFFFFFFFFFFFFFFFFFFFFFFFFFD7
:0200000400F00A
:020000040030CA
:0E000000200E3F1E008381000FC00FE00F4056
:020000040020DA
:08000000FFFFFFFFFFFFFFFF00
:00000001FF
